{
  "address": "0x33AEc47C815EFAb4e6022d40c2Ef2103Be122b0d",
  "abi": [
    {
      "inputs": [
        {
          "internalType": "address payable",
          "name": "diceGameAddress",
          "type": "address"
        }
      ],
      "stateMutability": "nonpayable",
      "type": "constructor"
    },
    {
      "inputs": [
        {
          "internalType": "address",
          "name": "owner",
          "type": "address"
        }
      ],
      "name": "OwnableInvalidOwner",
      "type": "error"
    },
    {
      "inputs": [
        {
          "internalType": "address",
          "name": "account",
          "type": "address"
        }
      ],
      "name": "OwnableUnauthorizedAccount",
      "type": "error"
    },
    {
      "anonymous": false,
      "inputs": [
        {
          "indexed": true,
          "internalType": "address",
          "name": "previousOwner",
          "type": "address"
        },
        {
          "indexed": true,
          "internalType": "address",
          "name": "newOwner",
          "type": "address"
        }
      ],
      "name": "OwnershipTransferred",
      "type": "event"
    },
    {
      "inputs": [],
      "name": "diceGame",
      "outputs": [
        {
          "internalType": "contract DiceGame",
          "name": "",
          "type": "address"
        }
      ],
      "stateMutability": "view",
      "type": "function"
    },
    {
      "inputs": [],
      "name": "getBalance",
      "outputs": [
        {
          "internalType": "uint256",
          "name": "",
          "type": "uint256"
        }
      ],
      "stateMutability": "view",
      "type": "function"
    },
    {
      "inputs": [],
      "name": "owner",
      "outputs": [
        {
          "internalType": "address",
          "name": "",
          "type": "address"
        }
      ],
      "stateMutability": "view",
      "type": "function"
    },
    {
      "inputs": [],
      "name": "renounceOwnership",
      "outputs": [],
      "stateMutability": "nonpayable",
      "type": "function"
    },
    {
      "inputs": [],
      "name": "riggedRoll",
      "outputs": [],
      "stateMutability": "nonpayable",
      "type": "function"
    },
    {
      "inputs": [
        {
          "internalType": "address",
          "name": "newOwner",
          "type": "address"
        }
      ],
      "name": "transferOwnership",
      "outputs": [],
      "stateMutability": "nonpayable",
      "type": "function"
    },
    {
      "inputs": [
        {
          "internalType": "address",
          "name": "_addr",
          "type": "address"
        },
        {
          "internalType": "uint256",
          "name": "_amount",
          "type": "uint256"
        }
      ],
      "name": "withdraw",
      "outputs": [],
      "stateMutability": "nonpayable",
      "type": "function"
    },
    {
      "stateMutability": "payable",
      "type": "receive"
    }
  ],
  "transactionHash": "0x5e241e667ae190b27170c1bef2aa3f7310b9872994da27d1232d166c944ef9e5",
  "args": [
    "0x8717558b796c9516F423F1aBbFbf10b3278E7288"
  ],
  "numDeployments": 1,
  "solcInputHash": "3b8b454acc080ceb3908ef68e457c193",
  "bytecode": "0x608060405234801561001057600080fd5b50604051610af2380380610af283398101604081905261002f916100d4565b338061005557604051631e4fbdf760e01b81526000600482015260240160405180910390fd5b61005e81610084565b50600180546001600160a01b0319166001600160a01b0392909216919091179055610104565b600080546001600160a01b038381166001600160a01b0319831681178455604051919092169283917f8be0079c531659141344cd1fd0a4f28419497f9722a3daafe3b4186f6b6457e09190a35050565b6000602082840312156100e657600080fd5b81516001600160a01b03811681146100fd57600080fd5b9392505050565b6109df806101136000396000f3fe6080604052600436106100745760003560e01c80638da5cb5b1161004e5780638da5cb5b146101235780638e288fd114610155578063f2fde38b14610175578063f3fef3a31461019557600080fd5b806312065fe0146100d95780636b5e97f8146100f9578063715018a61461010e57600080fd5b366100d4576100d2604051806040016040528060148152602001732934b3b3b2b22937b636103932b1b2b4bb32b21d60611b81525034604051806040016040528060098152602001683bb2b490333937b69d60b91b815250336101b5565b005b600080fd5b3480156100e557600080fd5b506040514781526020015b60405180910390f35b34801561010557600080fd5b506100d2610204565b34801561011a57600080fd5b506100d26104cb565b34801561012f57600080fd5b506000546001600160a01b03165b6040516001600160a01b0390911681526020016100f0565b34801561016157600080fd5b5060015461013d906001600160a01b031681565b34801561018157600080fd5b506100d26101903660046107e4565b6104df565b3480156101a157600080fd5b506100d26101b0366004610806565b61051d565b6101fe848484846040516024016101cf9493929190610876565b60408051601f198184030181529190526020810180516001600160e01b0316631f118ca960e21b17905261064e565b50505050565b66071afd498d00004710156102605760405162461bcd60e51b815260206004820152601a60248201527f4e6f7420656e6f7567682062616c616e636520746f20726f6c6c00000000000060448201526064015b60405180910390fd5b6001546040805163057ff68760e51b815290516000926001600160a01b03169163affed0e09160048083019260209291908290030181865afa1580156102aa573d6000803e3d6000fd5b505050506040513d601f19601f820116820180604052508101906102ce91906108bb565b905060006102dd6001436108d4565b6001546040805192406020840181905260609290921b6bffffffffffffffffffffffff19169083015260548201849052915060009060740160408051601f1981840301815291905280516020909101209050600061033c6010836108fb565b905061036f6040518060400160405280600f81526020016e283932b234b1ba32b2103937b6361d60891b81525082610657565b61039f6040518060400160405280600e81526020016d21bab93932b73a103737b731b29d60911b81525085610657565b6103ce6040518060400160405280600d81526020016c213637b1b590373ab6b132b91d60991b81525043610657565b6005811161046c576103f7604051806060016040528060228152602001610988602291396106a0565b600160009054906101000a90046001600160a01b03166001600160a01b0316637d789dee66071afd498d00006040518263ffffffff1660e01b81526004016000604051808303818588803b15801561044e57600080fd5b505af1158015610462573d6000803e3d6000fd5b50505050506101fe565b6101fe60405180604001604052806015815260200174283932b234b1ba32b2103637b9b990143937b6361d60591b815250826040518060400160405280600f81526020016e1497102737ba103937b63634b7339760891b8152506106e3565b6104d361072a565b6104dd6000610757565b565b6104e761072a565b6001600160a01b03811661051157604051631e4fbdf760e01b815260006004820152602401610257565b61051a81610757565b50565b61052561072a565b8047101561056c5760405162461bcd60e51b8152602060048201526014602482015273496e73756666696369656e742062616c616e636560601b6044820152606401610257565b6001600160a01b0382166105b45760405162461bcd60e51b815260206004820152600f60248201526e496e76616c6964206164647265737360881b6044820152606401610257565b6000826001600160a01b03168260405160006040518083038185875af1925050503d8060008114610601576040519150601f19603f3d011682016040523d82523d6000602084013e610606565b606091505b50509050806106495760405162461bcd60e51b815260206004820152600f60248201526e151c985b9cd9995c8819985a5b1959608a1b6044820152606401610257565b505050565b61051a816107a7565b61069c828260405160240161066d92919061091d565b60408051601f198184030181529190526020810180516001600160e01b0316632d839cb360e21b17905261064e565b5050565b61051a816040516024016106b4919061093f565b60408051601f198184030181529190526020810180516001600160e01b031663104c13eb60e21b17905261064e565b6106498383836040516024016106fb93929190610952565b60408051601f198184030181529190526020810180516001600160e01b0316635970e08960e01b17905261064e565b6000546001600160a01b031633146104dd5760405163118cdaa760e01b8152336004820152602401610257565b600080546001600160a01b038381166001600160a01b0319831681178455604051919092169283917f8be0079c531659141344cd1fd0a4f28419497f9722a3daafe3b4186f6b6457e09190a35050565b60006a636f6e736f6c652e6c6f679050600080835160208501845afa505050565b80356001600160a01b03811681146107df57600080fd5b919050565b6000602082840312156107f657600080fd5b6107ff826107c8565b9392505050565b6000806040838503121561081957600080fd5b610822836107c8565b946020939093013593505050565b6000815180845260005b818110156108565760208185018101518683018201520161083a565b506000602082860101526020601f19601f83011685010191505092915050565b6080815260006108896080830187610830565b85602084015282810360408401526108a18186610830565b91505060018060a01b038316606083015295945050505050565b6000602082840312156108cd57600080fd5b5051919050565b818103818111156108f557634e487b7160e01b600052601160045260246000fd5b92915050565b60008261091857634e487b7160e01b600052601260045260246000fd5b500690565b6040815260006109306040830185610830565b90508260208301529392505050565b6020815260006107ff6020830184610830565b6060815260006109656060830186610830565b846020840152828103604084015261097d8185610830565b969550505050505056fe5072656469637465642077696e2120526f6c6c696e672074686520646963652e2e2ea26469706673582212203a6f5f6d37e3b638eb20d636bac3ec4c0c85852bf2960237552c449195a17ef464736f6c63430008140033",
  "devdoc": {
    "errors": {
      "OwnableInvalidOwner(address)": [
        {
          "details": "The owner is not a valid owner account. (eg. `address(0)`)"
        }
      ],
      "OwnableUnauthorizedAccount(address)": [
        {
          "details": "The caller account is not authorized to perform an operation."
        }
      ]
    },
    "kind": "dev",
    "methods": {
      "owner()": {
        "details": "Returns the address of the current owner."
      },
      "renounceOwnership()": {
        "details": "Leaves the contract without owner. It will not be possible to call `onlyOwner` functions. Can only be called by the current owner. NOTE: Renouncing ownership will leave the contract without an owner, thereby disabling any functionality that is only available to the owner."
      },
      "transferOwnership(address)": {
        "details": "Transfers ownership of the contract to a new account (`newOwner`). Can only be called by the current owner."
      }
    },
    "version": 1
  },
  "userdoc": {
    "kind": "user",
    "methods": {},
    "version": 1
  },
  "storageLayout": {
    "storage": [
      {
        "astId": 8,
        "contract": "contracts/RiggedRoll.sol:RiggedRoll",
        "label": "_owner",
        "offset": 0,
        "slot": "0",
        "type": "t_address"
      },
      {
        "astId": 351,
        "contract": "contracts/RiggedRoll.sol:RiggedRoll",
        "label": "diceGame",
        "offset": 0,
        "slot": "1",
        "type": "t_contract(DiceGame)341"
      }
    ],
    "types": {
      "t_address": {
        "encoding": "inplace",
        "label": "address",
        "numberOfBytes": "20"
      },
      "t_contract(DiceGame)341": {
        "encoding": "inplace",
        "label": "contract DiceGame",
        "numberOfBytes": "20"
      }
    }
  }
}